:100000000C945D000C9485000C9485000C94850084
:100010000C9485000C9485000C9485000C9485004C
:100020000C9485000C9485000C9485000C9485003C
:100030000C9485000C9485000C9485000C9485002C
:100040000C941C050C9485000C94EA040C94C404D4
:100050000C9485000C9485000C9485000C9485000C
:100060000C9466050C948500000000080002010055
:100070000003040700000000000000000000000072
:10008000250028002B0000000000240027002A0083
:10009000040404040404040402020202020203032E
:1000A0000303030301020408102040800102040836
:1000B0001020010204081020850611241FBECFEF76
:1000C000D8E0DEBFCDBF11E0A0E0B1E0E0E0FAE1B2
:1000D00002C005900D92AE3FB107D9F723E0AEEF15
:1000E000B1E001C01D92AE36B207E1F710E0CDE5F8
:1000F000D0E004C02197FE010E94060BCC35D10749
:10010000C9F70E94BE060C94FE0C0C9400000895E2
:10011000CF93DF93AC01E0917002F09171023097C0
:10012000F1F090916F0280916E029817C0F090E00C
:10013000292F30E02617370754F4D901A250BE4FBB
:10014000240F351FE90128812C939F5FF1CF109276
:100150006F0260936E02CB01DF91CF910994DF9122
:10016000CF910895AF92BF92CF92DF92EF92FF921C
:100170000F931F93CF93DF936C017B018B01040FCF
:10018000151FEB015E01AE18BF08C017D10759F06B
:100190006991D601ED91FC910190F081E02DC601AD
:1001A0000995892B79F7C501DF91CF911F910F91A7
:1001B000FF90EF90DF90CF90BF90AF900895FC013B
:1001C000538D448D252F30E0842F90E0821B930BBC
:1001D000541710F0CF96089501970895FC01918D62
:1001E000828D981761F0A28DAE0FBF2FB11D5D9665
:1001F0008C91928D9F5F9F73928F90E008958FEF07
:100200009FEF0895FC01918D828D981731F0828DBA
:10021000E80FF11D858D90E008958FEF9FEF089511
:10022000FC01918D228D892F90E0805C9F4F821B75
:1002300091098F739927089581EC92E00E94100133
:1002400021E0892B09F420E0822F089580E090E0DE
:10025000892B29F00E941C0181110C940000089543
:10026000FC01A48DA80FB92FB11DA35ABF4F2C912B
:10027000848D90E001968F739927848FA689B78922
:100280002C93A089B1898C91837080648C93938D19
:10029000848D981306C00288F389E02D80818F7DBC
:1002A00080830895EF92FF920F931F93CF93DF9374
:1002B000EC0181E0888F9B8D8C8D98131AC0E889A2
:1002C000F989808185FF15C09FB7F894EE89FF8971
:1002D0006083E889F98980818370806480839FBF0F
:1002E00081E090E0DF91CF911F910F91FF90EF900F
:1002F0000895F62E0B8D10E00F5F1F4F0F7311271F
:10030000E02E8C8D8E110CC00FB607FCFACFE88959
:10031000F989808185FFF5CFCE010E943001F1CFB0
:10032000EB8DEC0FFD2FF11DE35AFF4FF0829FB7CD
:10033000F8940B8FEA89FB8980818062CFCFCF93BD
:10034000DF93EC01888D8823B9F0AA89BB89E889FD
:10035000F9898C9185FD03C0808186FD0DC00FB6A3
:1003600007FCF7CF8C9185FFF2CF808185FFEDCF21
:10037000CE010E943001E9CFDF91CF91089590E046
:10038000FC01E859FF4F2491FC01EC55FF4F3491DB
:10039000FC01E057FF4FE491EE23C9F0222339F02E
:1003A000233001F1A8F4213019F1223029F1F0E0D5
:1003B000EE0FFF1FE458FF4FA591B4918FB7F8944B
:1003C000EC91611126C030953E233C938FBF089578
:1003D0002730A9F02830C9F0243049F780918000F7
:1003E0008F7D03C0809180008F7780938000DFCF66
:1003F00084B58F7784BDDBCF84B58F7DFBCF8091B3
:10040000B0008F778093B000D2CF8091B0008F7D05
:10041000F9CF3E2BDACF3FB7F894809166029091E6
:100420006702A0916802B091690226B5A89B05C039
:100430002F3F19F00196A11DB11D3FBFBA2FA92F63
:10044000982F8827BC01CD01620F711D811D911D60
:1004500042E0660F771F881F991F4A95D1F70895CC
:100460008F929F92AF92BF92CF92DF92EF92FF92C4
:100470004B015C010E940B026B017C010E940B028C
:100480006C197D098E099F09683E734081059105AD
:10049000A8F321E0821A9108A108B10888EEC80EDD
:1004A00083E0D81EE11CF11C81149104A104B10465
:1004B00029F7FF90EF90DF90CF90BF90AF909F9083
:1004C0008F90089585ED8093BC008091BC0084FDE1
:1004D000FCCF10929802089520913E02260F3327F8
:1004E000331F21323105ECF420919802FC0190E099
:1004F00080E0243069F082E00895A0913E022191CD
:10050000AC01425E5D4FA40FB52FB11D2C93019637
:10051000861798F380913E02680F60933E0280E058
:10052000089581E008950895E0916F0280916E0230
:10053000E81730F4F0E0E250FE4F808190E008953B
:100540008FEF9FEF089590916F0280916E022FEFD1
:100550003FEF981748F4E92FF0E0E250FE4F20817A
:1005600030E09F5F90936F02C901089580916E0201
:1005700090916F02891B990B0895CF92DF92EF92B1
:10058000FF920F931F93CF93DF937C01CB018A01DE
:1005900020919902222389F0EB016B01C40ED51E34
:1005A000CC15DD0569F06991D701ED91FC910190C1
:1005B000F081E02DC7010995F3CF642F0E946C02F2
:1005C000C801DF91CF911F910F91FF90EF90DF90C5
:1005D000CF900895CF93DF931F92CDB7DEB7698395
:1005E000209199022223F9F02091BC02203258F088
:1005F00021E030E0FC013383228390E080E00F9023
:10060000DF91CF91089580919A02E82FF0E0E556AE
:10061000FD4F998190838F5F80939A028093BC02F3
:1006200081E090E0ECCF61E0CE0101960E946C0287
:10063000F7CF90E080E0089542E050E06EE271E094
:1006400081EC92E00C94B200CF93DF93FC014481E3
:1006500055816081718181EC92E00E94B200EC01D1
:100660000E941C038C0F9D1FDF91CF9108950F9363
:100670001F93CF93DF93EC0188819981009759F004
:100680002A813B812617370730F081E0DF91CF9137
:100690001F910F9108958B016F5F7F4F0E94310C66
:1006A000009759F0998388831B830A832C813D81AD
:1006B000232B59F7FC011082E8CF80E0E7CFEF92BF
:1006C000FF920F931F93CF93DF936115710541F450
:1006D00080E0DF91CF911F910F91FF90EF900895EF
:1006E00041155105B1F07B01EC010C811D81040F16
:1006F000151FB8010E943703882351F328813981DF
:100700008C819D81B701820F931F0E94F70C1D837E
:100710000C8381E0DECFCF93DF93EC018881998158
:10072000009711F00E94A80B198218821D821C826A
:100730001B821A82DF91CF910895CF92DF92EF92C0
:10074000FF920F931F93CF93DF93CDB7DEB76297DE
:100750000FB6F894DEBF0FBECDBF8C01CB01F80100
:100760001182108213821282158214824AE09E0145
:100770002F5F3F4F6901B9010E94370AF6010190CE
:100780000020E9F731977F01EC18FD08B701C80197
:100790000E943703811112C0C8010E948B03629628
:1007A0000FB6F894DEBF0FBECDBFDF91CF911F9182
:1007B0000F91FF90EF90DF90CF900895F801F582B0
:1007C000E482B601808191810E94F70CE8CFCF933B
:1007D000DF93EC01FB0101900020E9F73197AF01B5
:1007E000461B570B0E945F03811103C0CE010E947C
:1007F0008B03CE01DF91CF910895CF93DF93EC016E
:10080000FB0144815581608171810E945F038111E8
:1008100003C0CE010E948B03CE01DF91CF910895DA
:10082000EF92FF920F931F93CF93DF93EC01198206
:1008300018821B821A821D821C826115710521F1AA
:100840008B01FB0101900020E9F731977F01E61A47
:10085000F70AB7010E943703811109C0CE01DF9169
:10086000CF911F910F91FF90EF900C948B03FD821D
:10087000EC82B80188819981DF91CF911F910F910E
:10088000FF90EF900C94F70CDF91CF911F910F9197
:10089000FF90EF900895FC0180819181009711F005
:1008A0000C94A80B0895EF92FF920F931F93CF9390
:1008B000DF93CDB7DEB762970FB6F894DEBF0FBEF9
:1008C000CDBF82E090E00E940C0B8C017C019091E6
:1008D0006E0280916F02981741F08EE593E00E94BE
:1008E000A302F70181937F01F2CFB801CE010D96EB
:1008F0000E94100465E070E0CE0107960E949D03FF
:1009000061E371E0CE0101960E941004BE01695FAF
:100910007F4FCE0101960E94FD036AE371E00E94C1
:10092000E703BE01635F7F4F0E94FD030E94240323
:10093000CE0101960E944B04CE0107960E944B0403
:10094000CE010D960E944B04F8018081803349F45A
:100950008181803331F481E090E09093C0028093F4
:10096000BF026CE271E080E090E00E94300262968B
:100970000FB6F894DEBF0FBECDBFDF91CF911F91B0
:100980000F91FF90EF9008951F920F920FB60F9264
:1009900011242F933F934F935F936F937F938F9384
:1009A0009F93AF93BF93EF93FF9381EC92E00E94EC
:1009B0003001FF91EF91BF91AF919F918F917F9106
:1009C0006F915F914F913F912F910F900FBE0F90BC
:1009D0001F9018951F920F920FB60F9211242F930C
:1009E0008F939F93EF93FF93E091D102F091D20206
:1009F0008081E091D702F091D80282FD1BC09081E6
:100A00008091DA028F5F8F732091DB02821741F0B1
:100A1000E091DA02F0E0EF53FD4F958F8093DA0218
:100A2000FF91EF919F918F912F910F900FBE0F909B
:100A30001F9018958081F4CF1F920F920FB60F92DE
:100A400011242F933F938F939F93AF93BF938091E4
:100A5000620290916302A0916402B09165023091AC
:100A6000610223E0230F2D3758F50196A11DB11D1A
:100A7000209361028093620290936302A0936402C8
:100A8000B09365028091660290916702A09168021E
:100A9000B09169020196A11DB11D809366029093E9
:100AA0006702A0936802B0936902BF91AF919F91D2
:100AB0008F913F912F910F900FBE0F901F9018951F
:100AC00026E8230F0296A11DB11DD2CF1F920F92CF
:100AD0000FB60F9211242F933F934F935F936F9311
:100AE0007F938F939F93AF93BF93EF93FF938091E7
:100AF000B900887F803609F44AC0F0F5883209F4DD
:100B0000A7C018F5803109F49BC0B8F4882309F414
:100B1000F9C0883009F494C0FF91EF91BF91AF9173
:100B20009F918F917F916F915F914F913F912F9105
:100B30000F900FBE0F901F901895883109F488C050
:100B4000803251F78093960214C0803409F49DC01E
:100B500040F48033B9F38833F9F68093960285EC3C
:100B6000B0C0803509F485C0883509F496C0883452
:100B700099F60E946202D0CF883909F48CC038F50A
:100B8000883729F050F4883611F0803729F683E051
:100B9000809398021092600257C0883809F47BC095
:100BA000803919F0803809F0B7CF80916002803227
:100BB00008F071C0E091600281E08E0F80936002C6
:100BC0008091BB00F0E0E05CFD4F80833DC0803B46
:100BD00039F0E0F4803A09F479C0883A09F09CCF02
:100BE00084E08093980210923F0210923E02E091BE
:100BF0006C02F0916D02099580913E0281110FC047
:100C000081E080933E0210921E0209C0803C09F4EC
:100C1000A6CF883C09F4A3CF883B09F07DCFE091B3
:100C20003F0281E08E0F80933F02F0E0E25EFD4FD5
:100C300080818093BB0090913F0280913E0229C049
:100C4000809173028093BB0085EC8093BC0064CFDD
:100C50009091950280919402981758F5E091950231
:100C600081E08E0F80939502F0E0EC58FD4F80817B
:100C7000E9CFE091950281E08E0F809395028091FB
:100C8000BB00F0E0EC58FD4F80839091950280917D
:100C900094029817C8F285E8D8CFE091950281E0D8
:100CA0008E0F809395028091BB00F0E0EC58FD4FD1
:100CB00080838091970281115CCF81E080937202E2
:100CC00084EA8093BC001092980226CF85EC809332
:100CD000BC001092980280916002803230F4E09162
:100CE0006002F0E0E05CFD4F10826091600270E015
:100CF000E0916A02F0916B0280E492E00995109213
:100D000060020ACF1092960234CFE1ECF2E0138237
:100D1000128288EE93E0A0E0B0E084839583A683FE
:100D2000B7832EE031E03183208325EC30E0358736
:100D3000248724EC30E03787268720EC30E0318BA5
:100D4000208B21EC30E0338B228B22EC30E0358B92
:100D5000248B26EC30E0378B268B118E128E138E6F
:100D6000148EEEE5F3E01382128284839583A683CA
:100D7000B78380E291E0918380830895CF93DF93DE
:100D8000CDB7DEB762970FB6F894DEBF0FBECDBF0A
:100D9000789484B5826084BD84B5816084BD85B556
:100DA000826085BD85B5816085BD80916E00816062
:100DB00080936E0010928100809181008260809308
:100DC000810080918100816080938100809180000A
:100DD0008160809380008091B10084608093B10035
:100DE0008091B00081608093B00080917A0084602F
:100DF00080937A0080917A00826080937A0080915B
:100E00007A00816080937A0080917A008068809374
:100E10007A001092C100E091D102F091D20282E0FA
:100E20008083E091CD02F091CE021082E091CF025A
:100E3000F091D0028FEC80831092D902E091D5021C
:100E4000F091D60286E08083E091D302F091D40243
:100E5000808180618083E091D302F091D40280810F
:100E600088608083E091D302F091D4028081806811
:100E70008083E091D302F091D40280818F7D8083C2
:100E800065E070E0CE0101960E949D0361E371E090
:100E9000CE0107960E941004BE016F5F7F4FCE0106
:100EA00007960E94FD0368E471E00E94E7030E9438
:100EB0002403CE0107960E944B04CE0101960E94A6
:100EC0004B0410926F0210926E0210929A021092CE
:100ED000BC021092980281E08093970210927202F5
:100EE00061E082E10E94BF0161E083E10E94BF01F5
:100EF0008091B9008E7F8093B9008091B9008D7F79
:100F00008093B90088E48093B80085E48093BC00A6
:100F100087E890E090936D0280936C0288E890E0FF
:100F200090936B0280936A028AE08093BA0083E513
:100F300094E09093710280937002E1EBF0E02491D1
:100F4000EDE9F0E08491882399F090E0880F991FF3
:100F5000FC01EA57FF4FA591B491FC01E458FF4F03
:100F6000859194918FB7F894EC91E22BEC938FBF1D
:100F70000E941C0382E0482E512C612C712C90E9B8
:100F8000892E99249394A12CB12CCC24C39422E0D3
:100F9000222E33243A948091BF029091C002019690
:100FA00009F091C18091BD029091BE0281309105FE
:100FB00009F084C10E94DF09A30192010E946C0A1A
:100FC000D62EE62EF72E81E0E816F10409F088C14E
:100FD00061E070E0CE010D960E949D0365E070E037
:100FE000CE0107960E949D0361E371E0CE01019658
:100FF0000E941004BE01695F7F4FCE0101960E94DE
:10100000FD0369E571E00E94E703BE01635F7F4F66
:101010000E94FD030E942403CE0101960E944B040E
:10102000CE0107960E944B04CE010D960E944B0400
:101030006CE271E080E090E00E94300282E090E09B
:101040000E940C0B8C0125E3FC01208380E38D0DB5
:101050008183B801CE0101960E94100465E070E022
:10106000CE0107960E949D0361E371E0CE010D96CB
:101070000E941004BE01695F7F4FCE010D960E9451
:10108000FD0369E971E00E94E703BE016F5F7F4FD6
:101090000E94FD0367EA71E00E94E7030E942403B7
:1010A000CE010D960E944B04CE0107960E944B0480
:1010B000CE0101960E944B04C09299021092BB028D
:1010C00010929A021092BC020115110569F0F80104
:1010D00001900020E9F73197AF01401B510BB80197
:1010E0008EE593E00E94BD022091BC02213208F0FF
:1010F0003FC0809198028111FCCF8091BB02209269
:101100009802C09297023092960210929502209314
:101110009402ABE9B2E0E4E7F2E090E02913FBC00F
:101120001092730290917302880F892B809373023F
:1011300080917202813009F0F2C0109272028091A7
:1011400073028093BB008091BC0083FDF8CF85ECD7
:101150008093BC00809198028230E1F380919602E6
:101160008F3F31F080919602803211F0809196028B
:1011700010929A021092BC021092990268EC70E0F0
:1011800080E090E00E94300265E070E0CE010196C0
:101190000E949D0361E371E0CE0107960E94100456
:1011A000BE016F5F7F4FCE0107960E94FD0362EB89
:1011B00071E00E94E7030E942403CE0107960E947B
:1011C0004B04CE0101960E944B040E941C03109216
:1011D000C0021092BF02EA94EF2809F06BC00E948F
:1011E000DF09A50194010E946C0ACE010D960E94B0
:1011F0009D0365E070E0CE0107960E949D0361E3C8
:1012000071E0CE0101960E941004BE01695F7F4F1C
:10121000CE0101960E94FD036CEC71E00E94E70391
:10122000BE01635F7F4F0E94FD0366EE71E00E9486
:10123000E7030E942403CE0101960E944B04CE01D5
:1012400007960E944B04CE010D960E944B0461E06C
:101250008DE00E94BF016CE271E080E090E00E94AE
:10126000300260E08DE00E94BF0165E070E0CE01D9
:1012700007960E949D0361E371E0CE0101960E94F2
:101280001004BE01695F7F4FCE0101960E94FD03ED
:1012900069EE71E00E94E7030E942403CE010196EB
:1012A0000E944B04CE0107960E944B041092C0028C
:1012B0001092BF028091BD029091BE020196909360
:1012C000BE028093BD0280E090E0892B09F463CEDA
:1012D0000E941C01882309F45CCE0E94000059CEB4
:1012E000B701CE010D960E949D0365E070E0CE012E
:1012F00007960E949D0361E371E0CE0101960E9472
:101300001004BE01695F7F4FCE0101960E94FD036C
:1013100067E771E078CE3D9131939F5FFFCE95EE08
:101320009093BC0017CF8F929F92AF92BF92CF92B3
:10133000DF92EF92FF92CF93DF93EC016881798186
:101340008A819B81611571058105910521F464E213
:1013500079ED8BE597E02DE133EF41E050E00E941D
:101360006C0A49015A019B01AC01A7EAB1E40E9451
:101370008B0A6B017C01ACEEB4EFA50194010E94D5
:10138000990AC60ED71EE81EF91EF7FE06C081E0B8
:10139000C81AD108E10880E8F80AC882D982EA822E
:1013A000FB82C701B6019F77DF91CF91FF90EF904D
:1013B000DF90CF90BF90AF909F908F9008958F92C5
:1013C0009F92AF92BF92CF92DF92EF92FF92609185
:1013D000000170910101809102019091030161155A
:1013E00071058105910521F464E279ED8BE597E0C3
:1013F0002DE133EF41E050E00E946C0A49015A01AF
:101400009B01AC01A7EAB1E40E948B0A6B017C014D
:10141000ACEEB4EFA50194010E94990AC60ED71E46
:10142000E81EF91EF7FE06C081E0C81AD108E108DF
:1014300080E8F80AC0920001D0920101E092020116
:10144000F0920301C701B6019F77FF90EF90DF9004
:10145000CF90BF90AF909F908F90089560930001C0
:101460007093010180930201909303010895BB27BB
:101470004A3031F4992322F4BDE2909581959F4F33
:101480000C94430ABB27FB015527AA27880F991FF5
:10149000AA1FA41710F0A41B83955051B9F7A05DA3
:1014A000AA3308F0A95DA193009779F7B111B19320
:1014B0001192CB010C945C0ADC01FC01672F719145
:1014C0007723E1F7329704C07C916D93708362912A
:1014D000AE17BF07C8F30895052E97FB1EF40094BE
:1014E0000E94830A57FD07D00E94D50A07FC03D04B
:1014F0004EF40C94830A50954095309521953F4FBA
:101500004F4F5F4F089590958095709561957F4FEF
:101510008F4F9F4F08950E94F70AA59F900DB49F8B
:10152000900DA49F800D911D11240895B7FF0C9478
:101530008B0A0E948B0A821B930B08952F923F9275
:101540004F925F926F927F928F929F92AF92BF92D3
:10155000CF92DF92EF92FF920F931F93CF93DF937F
:10156000CDB7DEB7CA1BDB0B0FB6F894DEBF0FBEDC
:10157000CDBF09942A88398848885F846E847D8429
:101580008C849B84AA84B984C884DF80EE80FD802B
:101590000C811B81AA81B981CE0FD11D0FB6F894A1
:1015A000DEBF0FBECDBFED010895A1E21A2EAA1B2A
:1015B000BB1BFD010DC0AA1FBB1FEE1FFF1FA21703
:1015C000B307E407F50720F0A21BB30BE40BF50B00
:1015D000661F771F881F991F1A9469F76095709589
:1015E000809590959B01AC01BD01CF010895A29F0C
:1015F000B001B39FC001A39F700D811D1124911DE7
:10160000B29F700D811D1124911D0895EE0FFF1FD3
:101610000590F491E02D09940F931F93CF93DF93DE
:101620008230910510F482E090E0E0916C03F0913B
:101630006D0330E020E0B0E0A0E0309799F4211590
:10164000310509F44AC0281B390B24303105D8F57F
:101650008A819B816115710589F1FB0193838283E6
:10166000FE0111C040815181028113814817590741
:10167000E0F04817590799F4109761F012960C930F
:10168000129713961C933296CF01DF91CF911F9141
:101690000F91089500936C0310936D03F4CF2115FF
:1016A000310551F04217530738F0A901DB019A01C7
:1016B000BD01DF01F801C1CFEF01F9CF90936D03B8
:1016C00080936C03CDCFFE01E20FF31F81939193C2
:1016D0002250310939832883D7CF20916A03309172
:1016E0006B03232B41F420910601309107013093C5
:1016F0006B0320936A0320910401309105012115A9
:10170000310541F42DB73EB74091080150910901D0
:10171000241B350BE0916A03F0916B03E217F3078A
:10172000A0F42E1B3F0B2817390778F0AC014E5F51
:101730005F4F2417350748F04E0F5F1F50936B0320
:1017400040936A03819391939FCFF0E0E0E09CCFB8
:10175000CF93DF930097E9F0FC0132971382128256
:10176000A0916C03B0916D03ED0130E020E0109783
:10177000A1F420813181820F931F20916A0330915F
:101780006B032817390709F061C0F0936B03E093EE
:101790006A03DF91CF910895EA01CE17DF07E8F5DC
:1017A0004A815B819E0141155105B1F7E901FB8337
:1017B000EA8349915991C40FD51FEC17FD0761F4D5
:1017C000808191810296840F951FE9019983888316
:1017D000828193819B838A83F0E0E0E012968D9171
:1017E0009C9113970097B9F52D913C911197CD01DC
:1017F0000296820F931F20916A0330916B03281782
:10180000390739F6309751F510926D0310926C0339
:10181000B0936B03A0936A03BCCFD383C283408190
:101820005181840F951FC817D90761F44E5F5F4F30
:1018300088819981480F591F518340838A819B81F8
:10184000938382832115310509F0B0CFF0936D03A6
:10185000E0936C039ECFFD01DC01C0CF13821282A6
:10186000D7CFB0E0A0E0E7E3FCE00C94A00A8C0145
:10187000009751F4CB010E940C0B8C01C801CDB72D
:10188000DEB7E0E10C94BC0AFC01E60FF71F9C01F7
:1018900022503109E217F30708F49DC0D901CD9118
:1018A000DC911197C617D70798F0C530D10530F3F2
:1018B000CE0104978617970708F3C61BD70B22970C
:1018C000C193D1936D937C93CF010E94A80BD6CF87
:1018D0005B01AC1ABD0A4C018C0E9D1EA0916C03DD
:1018E000B0916D03512C412CF12CE12C109731F566
:1018F00080916A0390916B038815990509F05CC08B
:101900004616570608F058C08091040190910501D1
:10191000009741F48DB79EB740910801509109019D
:10192000841B950BE817F90708F055C0F0936B037B
:10193000E0936A03F90171836083A0CF8D919C913C
:10194000119712966C90129713967C901397A81586
:10195000B90559F56C0142E0C40ED11CCA14DB0470
:1019600020F1AC014A195B09DA011296159780F053
:101970006282738251834083D9016D937C93E11419
:10198000F10471F0D7011396FC93EE93129776CF82
:1019900022968C0F9D1FF90191838083F301EFCF75
:1019A000F0936D03E0936C0369CF4816590608F471
:1019B0002C017D01D3019ACFCB010E940C0B7C013D
:1019C000009749F0AE01B8010E94EE0CC8010E94D8
:1019D000A80B870153CF10E000E050CFFB01DC01E2
:1019E00002C001900D9241505040D8F70895FB017C
:1019F000DC0101900D920020E1F70895F894FFCFEB
:101A00000100000000006E03800000000000520191
:101A1000B200DF009F011001EE0002010000000093
:101A2000EA02BD0219039302B602A30294020D0A50
:101A3000004553435241564F2000202D3E20526511
:101A400063656269646F2000202D3E20696E6963C2
:101A500069616E646F2E2E2E00202D3E205573611D
:101A6000726569206F207265637572736F2C2074C4
:101A7000697265693A2000202D3E204E616F207505
:101A80007361726569206F207265637572736F2C64
:101A90002074697265693A2000202D3E20456E76DB
:101AA00069616E646F200020616F206D65737472D0
:101AB0006500202D3E205472616E736D69737361F1
:101AC0006F207465726D696E61646100202D3E2027
:101AD0005573616E646F206F207265637572736FEA
:101AE00020706F7220006D7300202D3E20526563C0
:0E1AF0007572736F206C6962657261646F00BD
:00000001FF
