:100000000C945D000C9485000C9485000C94850084
:100010000C9485000C9485000C9485000C9485004C
:100020000C9485000C9485000C9485000C9485003C
:100030000C9485000C9485000C9485000C9485002C
:100040000C9474050C9485000C9442050C941C05CA
:100050000C9485000C9485000C9485000C9485000C
:100060000C94BE050C9485000000000024002700BD
:100070002A0000000000250028002B0004040404CE
:100080000404040402020202020203030303030342
:10009000010204081020408001020408102001021F
:1000A00004081020000000080002010000030407FB
:1000B0000000000000000000DD0611241FBECFEF8D
:1000C000D8E0DEBFCDBF11E0A0E0B1E0E8EBFAE19F
:1000D00002C005900D92AE3FB107D9F723E0AEEF15
:1000E000B1E001C01D92AC36B207E1F710E0CDE5FA
:1000F000D0E004C02197FE010E94530BCC35D107FC
:10010000C9F70E9416070C945A0D0C94000090E059
:10011000FC01EC55FF4F2491FC01E057FF4F349157
:10012000FC01E458FF4FE491EE23B1F0222339F0B3
:100130002330E9F090F4213001F1223011F1F0E0A8
:10014000EE0FFF1FEE58FF4FA591B4918FB7F894B3
:10015000EC913E2B3C938FBF08952730A9F02830B7
:10016000C9F0243061F7809180008F7D03C08091B9
:1001700080008F7780938000E2CF84B58F7784BD35
:10018000DECF84B58F7DFBCF8091B0008F778093D9
:10019000B000D5CF8091B0008F7DF9CF0895CF9377
:1001A000DF93AC01E0917002F09171023097F1F0B1
:1001B00090916F0280916E029817C0F090E0292F05
:1001C00030E02617370754F4D901A250BE4F240F50
:1001D000351FE90128812C939F5FF1CF10926F02A8
:1001E00060936E02CB01DF91CF910994DF91CF91A3
:1001F0000895AF92BF92CF92DF92EF92FF920F934A
:100200001F93CF93DF936C017B018B01040F151FAC
:10021000EB015E01AE18BF08C017D10759F0699114
:10022000D601ED91FC910190F081E02DC601099578
:10023000892B79F7C501DF91CF911F910F91FF9025
:10024000EF90DF90CF90BF90AF900895FC01538D59
:10025000448D252F30E0842F90E0821B930B5417A0
:1002600010F0CF96089501970895FC01918D828D2D
:10027000981761F0A28DAE0FBF2FB11D5D968C91C6
:10028000928D9F5F9F73928F90E008958FEF9FEF05
:100290000895FC01918D828D981731F0828DE80FC1
:1002A000F11D858D90E008958FEF9FEF0895FC017B
:1002B000918D228D892F90E0805C9F4F821B910948
:1002C0008F73992708958FEB92E00E94570121E0E8
:1002D000892B09F420E0822F089580E090E0892B9B
:1002E00029F00E94630181110C9400000895FC0123
:1002F000A48DA80FB92FB11DA35ABF4F2C91848D87
:1003000090E001968F739927848FA689B7892C93E3
:10031000A089B1898C91837080648C93938D848D36
:10032000981306C00288F389E02D80818F7D808339
:100330000895EF92FF920F931F93CF93DF93EC01F9
:1003400081E0888F9B8D8C8D98131AC0E889F9897C
:10035000808185FF15C09FB7F894EE89FF8960837F
:10036000E889F98980818370806480839FBF81E000
:1003700090E0DF91CF911F910F91FF90EF90089542
:10038000F62E0B8D10E00F5F1F4F0F731127E02E1D
:100390008C8D8E110CC00FB607FCFACFE889F98955
:1003A000808185FFF5CFCE010E947701F1CFEB8DE3
:1003B000EC0FFD2FF11DE35AFF4FF0829FB7F89429
:1003C0000B8FEA89FB8980818062CFCFCF93DF9347
:1003D000EC01888D8823B9F0AA89BB89E889F9895D
:1003E0008C9185FD03C0808186FD0DC00FB607FC92
:1003F000F7CF8C9185FFF2CF808185FFEDCFCE01C5
:100400000E947701E9CFDF91CF9108953FB7F8942B
:100410008091660290916702A0916802B091690292
:1004200026B5A89B05C02F3F19F00196A11DB11D4F
:100430003FBFBA2FA92F982F8827BC01CD01620F8B
:10044000711D811D911D42E0660F771F881F991F46
:100450004A95D1F708958F929F92AF92BF92CF9213
:10046000DF92EF92FF924B015C010E9406026B014A
:100470007C010E9406026C197D098E099F09683E65
:10048000734081059105A8F321E0821A9108A10823
:10049000B10888EEC80E83E0D81EE11CF11C81145F
:1004A0009104A104B10429F7FF90EF90DF90CF9061
:1004B000BF90AF909F908F90089585ED8093BC0082
:1004C0008091BC0084FDFCCF109298020895209189
:1004D0003E02260F3327331F21323105ECF42091E1
:1004E0009802FC0190E080E0243069F082E00895F9
:1004F000A0913E022191AC01425E5D4FA40FB52F49
:10050000B11D2C930196861798F380913E02680FD7
:1005100060933E0280E0089581E008950895E0919F
:100520006F0280916E02E81730F4F0E0E250FE4F67
:10053000808190E008958FEF9FEF089590916F0272
:1005400080916E022FEF3FEF981748F4E92FF0E00B
:10055000E250FE4F208130E09F5F90936F02C9010F
:10056000089580916E0290916F02891B990B0895F6
:10057000CF92DF92EF92FF920F931F93CF93DF936F
:100580007C01CB018A0120919902222389F0EB01A1
:100590006B01C40ED51ECC15DD0569F06991D7013C
:1005A000ED91FC910190F081E02DC7010995F3CF09
:1005B000642F0E946702C801DF91CF911F910F91B4
:1005C000FF90EF90DF90CF900895CF93DF931F922D
:1005D000CDB7DEB76983209199022223F9F02091EB
:1005E000BC02203258F021E030E0FC01338322834A
:1005F00090E080E00F90DF91CF91089580919A0272
:10060000E82FF0E0E556FD4F998190838F5F80934E
:100610009A028093BC0281E090E0ECCF61E0CE01D1
:1006200001960E946702F7CF90E080E0089542E0D3
:1006300050E060E371E08FEB92E00C94F900CF930F
:10064000DF93FC0144815581608171818FEB92E0E1
:100650000E94F900EC010E9417038C0F9D1FDF918F
:10066000CF9108950F931F93CF93DF93EC0188816F
:100670009981009759F02A813B812617370730F07E
:1006800081E0DF91CF911F910F9108958B016F5FF2
:100690007F4F0E947E0C009759F0998388831B83BB
:1006A0000A832C813D81232B59F7FC011082E8CF6E
:1006B00080E0E7CFEF92FF920F931F93CF93DF93EA
:1006C0006115710541F480E0DF91CF911F910F9189
:1006D000FF90EF90089541155105B1F07B01EC01B9
:1006E0000C811D81040F151FB8010E94320388235D
:1006F00051F3288139818C819D81B701820F931F2D
:100700000E94440D1D830C8381E0DECFCF93DF93E5
:10071000EC0188819981009711F00E94F50B1982F4
:1007200018821D821C821B821A82DF91CF9108954C
:10073000CF92DF92EF92FF920F931F93CF93DF93AD
:10074000CDB7DEB762970FB6F894DEBF0FBECDBF50
:100750008C01CB01F8011182108213821282158262
:1007600014824AE09E012F5F3F4F6901B9010E9448
:100770007C0AF60101900020E9F731977F01EC181F
:10078000FD08B701C8010E943203811112C0C801DF
:100790000E94860362960FB6F894DEBF0FBECDBFEF
:1007A000DF91CF911F910F91FF90EF90DF90CF904D
:1007B0000895F801F582E482B601808191810E945A
:1007C000440DE8CFCF93DF93EC01FB0101900020B3
:1007D000E9F73197AF01461B570B0E945A0381116D
:1007E00003C0CE010E948603CE01DF91CF91089510
:1007F000CF93DF93EC01FB014481558160817181CE
:100800000E945A03811103C0CE010E948603CE01CB
:10081000DF91CF910895EF92FF920F931F93CF93A3
:10082000DF93EC01198218821B821A821D821C82BE
:100830006115710521F18B01FB0101900020E9F7A1
:1008400031977F01E61AF70AB7010E94320381113E
:1008500009C0CE01DF91CF911F910F91FF90EF90D2
:100860000C948603FD82EC82B80188819981DF9126
:10087000CF911F910F91FF90EF900C94440DDF9159
:10088000CF911F910F91FF90EF900895FC0180810F
:100890009181009711F00C94F50B0895EF92FF925F
:1008A0000F931F93CF93DF93CDB7DEB762970FB649
:1008B000F894DEBF0FBECDBF85E090E00E94590BDB
:1008C0008C017C0190916E0280916F02981741F02B
:1008D0008CE593E00E949E02F70181937F01F2CFA5
:1008E000B801CE010D960E940B0463E070E0CE01CA
:1008F00007960E94980363E371E0CE0101960E947F
:100900000B04BE01695F7F4FCE0101960E94F80380
:100910006CE371E00E94E203BE01635F7F4F0E94BF
:10092000F8030E941F03CE0101960E944604CE01E7
:1009300007960E944604CE010D960E9446040E942E
:100940001703F80180818134B1F48181813399F4F6
:1009500010920101109200010E94170362960FB6D7
:10096000F894DEBF0FBECDBFDF91CF911F910F91E5
:10097000FF90EF90089563E070E0CE0107960E942B
:10098000980363E371E0CE0101960E940B04BE015F
:10099000695F7F4FCE0101960E94F8036AE471E01F
:1009A0000E94E2030E941F03CE0101960E944604AA
:1009B000CE0107960E944604C8010E945E0A9093E9
:1009C000BE028093BD026091BD027091BE02CE0155
:1009D0000D960E94980363E070E0CE0107960E9496
:1009E000980363E371E0CE0101960E940B04BE01FF
:1009F000695F7F4FCE0101960E94F8036FE771E0B7
:100A00000E94E203BE01635F7F4F0E94F8030E94D1
:100A10001F03CE0101960E944604CE0107960E9454
:100A20004604CE010D960E9446048FEF9FEF9093EF
:100A300001018093000190CF1F920F920FB60F9289
:100A400011242F933F934F935F936F937F938F93D3
:100A50009F93AF93BF93EF93FF938FEB92E00E942E
:100A60007701FF91EF91BF91AF919F918F917F910E
:100A70006F915F914F913F912F910F900FBE0F900B
:100A80001F9018951F920F920FB60F9211242F935B
:100A90008F939F93EF93FF93E091CF02F091D00259
:100AA0008081E091D502F091D60282FD1BC0908139
:100AB0008091D8028F5F8F732091D902821741F005
:100AC000E091D802F0E0E154FD4F958F8093D80279
:100AD000FF91EF919F918F912F910F900FBE0F90EB
:100AE0001F9018958081F4CF1F920F920FB60F922E
:100AF00011242F933F938F939F93AF93BF93809134
:100B0000620290916302A0916402B09165023091FB
:100B1000610223E0230F2D3758F50196A11DB11D69
:100B2000209361028093620290936302A093640217
:100B3000B09365028091660290916702A09168026D
:100B4000B09169020196A11DB11D80936602909338
:100B50006702A0936802B0936902BF91AF919F9121
:100B60008F913F912F910F900FBE0F901F9018956E
:100B700026E8230F0296A11DB11DD2CF1F920F921E
:100B80000FB60F9211242F933F934F935F936F9360
:100B90007F938F939F93AF93BF93EF93FF93809136
:100BA000B900887F803609F44AC0F0F5883209F42C
:100BB000A7C018F5803109F49BC0B8F4882309F464
:100BC000F9C0883009F494C0FF91EF91BF91AF91C3
:100BD0009F918F917F916F915F914F913F912F9155
:100BE0000F900FBE0F901F901895883109F488C0A0
:100BF000803251F78093960214C0803409F49DC06E
:100C000040F48033B9F38833F9F68093960285EC8B
:100C1000B0C0803509F485C0883509F496C08834A1
:100C200099F60E945D02D0CF883909F48CC038F55E
:100C3000883729F050F4883611F0803729F683E0A0
:100C4000809398021092600257C0883809F47BC0E4
:100C5000803919F0803809F0B7CF80916002803276
:100C600008F071C0E091600281E08E0F8093600215
:100C70008091BB00F0E0E05CFD4F80833DC0803B95
:100C800039F0E0F4803A09F479C0883A09F09CCF51
:100C900084E08093980210923F0210923E02E0910D
:100CA0006C02F0916D02099580913E0281110FC096
:100CB00081E080933E0210921E0209C0803C09F43C
:100CC000A6CF883C09F4A3CF883B09F07DCFE09103
:100CD0003F0281E08E0F80933F02F0E0E25EFD4F25
:100CE00080818093BB0090913F0280913E0229C099
:100CF000809173028093BB0085EC8093BC0064CF2D
:100D00009091950280919402981758F5E091950280
:100D100081E08E0F80939502F0E0EC58FD4F8081CA
:100D2000E9CFE091950281E08E0F8093950280914A
:100D3000BB00F0E0EC58FD4F8083909195028091CC
:100D400094029817C8F285E8D8CFE091950281E027
:100D50008E0F809395028091BB00F0E0EC58FD4F20
:100D600080838091970281115CCF81E08093720231
:100D700084EA8093BC001092980226CF85EC809381
:100D8000BC001092980280916002803230F4E091B1
:100D90006002F0E0E05CFD4F10826091600270E064
:100DA000E0916A02F0916B0280E492E00995109262
:100DB00060020ACF1092960234CFEFEBF2E013827A
:100DC000128288EE93E0A0E0B0E084839583A6834E
:100DD000B78320E131E03183208325EC30E0358793
:100DE000248724EC30E03787268720EC30E0318BF5
:100DF000208B21EC30E0338B228B22EC30E0358BE2
:100E0000248B26EC30E0378B268B118E128E138EBE
:100E1000148EECE5F3E01382128284839583A6831B
:100E2000B78382E291E0918380830895CF93DF932B
:100E3000CDB7DEB768970FB6F894DEBF0FBECDBF53
:100E4000789484B5826084BD84B5816084BD85B5A5
:100E5000826085BD85B5816085BD80916E008160B1
:100E600080936E0010928100809181008260809357
:100E70008100809181008160809381008091800059
:100E80008160809380008091B10084608093B10084
:100E90008091B00081608093B00080917A0084607E
:100EA00080937A0080917A00826080937A008091AA
:100EB0007A00816080937A0080917A0080688093C4
:100EC0007A001092C10064E070E080E090E00E943F
:100ED000550AE091CF02F091D00282E08083E09148
:100EE000CB02F091CC021082E091CD02F091CE02C3
:100EF0008FEC80831092D702E091D302F091D4025C
:100F000016E01083E091D102F091D20280818061DD
:100F10008083E091D102F091D20280818860808349
:100F2000E091D102F091D202808180688083E091CB
:100F3000D102F091D20280818F7D808363E070E0E6
:100F4000CE0101960E94980363E371E0CE010796FB
:100F50000E940B04BE016F5F7F4FCE0107960E9477
:100F6000F80362E971E00E94E2030E941F03CE01D0
:100F700007960E944604CE0101960E9446041092F4
:100F80006F0210926E0210929A021092BC0210929E
:100F9000980281E0809397021092720282E10E948F
:100FA000870083E10E9487008091B9008E7F809343
:100FB000B9008091B9008D7F8093B90088E4809357
:100FC000B80085E48093BC008EEC90E090936D02B5
:100FD00080936C028FEC90E090936B0280936A0296
:100FE0001093BA008EE494E09093710280937002A3
:100FF000EDE9F0E02491E9E8F0E08491882399F0AC
:1010000090E0880F991FFC01E859FF4FA591B4911A
:10101000FC01EE58FF4F859194918FB7F894EC91B5
:10102000E22BEC938FBF0E94060A2FE037E240E0EC
:1010300050E00E94B90A7093BE026093BD026091B5
:10104000BD027091BE02CE0101960E94980363E03A
:1010500070E0CE0107960E94980363E371E0CE0131
:101060000D960E940B04BE01695F7F4FCE010D9665
:101070000E94F80363EA71E00E94E203BE016F5F21
:101080007F4F0E94F8030E941F03CE010D960E941D
:101090004604CE0107960E944604CE0101960E94A6
:1010A00046040E94170325EE822E30E0C32E30E066
:1010B000D32E9924939442E0742E66246A94AA2431
:1010C000A394B12C95EC592E8091000190910101CF
:1010D000892B09F0FEC06091BD027091BE02CE0165
:1010E00043960E94980385E090E00E94590B8C0182
:1010F0000097B9F0EF88F88CFC01E114F10481F05D
:10110000F4E0EF16F10418F084E0E82EF12C6B897E
:101110007C89A701C8010E944B0DF801EE0DFF1D4F
:101120001082B801CE0101960E940B0463E070E0CA
:10113000CE0107960E94980363E371E0CE010D96FD
:101140000E940B04BE01695F7F4FCE010D960E9485
:10115000F8036CEB71E00E94E203BE016F5F7F4F0A
:101160000E94F8036AEC71E00E94E2030E941F03F0
:10117000CE010D960E944604CE0107960E944604B9
:10118000CE0101960E944604909299021092BB02F1
:1011900010929A021092BC020115110569F0F80133
:1011A00001900020E9F73197AF01401B510BB801C6
:1011B0008CE593E00E94B8022091BC02213208F035
:1011C0003EC0809198028111FCCF8091BB02709249
:1011D0009802909297026092960210929502209344
:1011E0009402ABE9B2E0E4E7F2E090E029136AC0D0
:1011F0001092730290917302880F892B809373026F
:1012000080917202813009F061C010927202809167
:1012100073028093BB008091BC0083FDF8CF509295
:10122000BC00809198028230E1F3809196028F3F5A
:1012300031F080919602803211F0809196021092E6
:101240009A021092BC021092990268EC70E080E061
:1012500090E00E942B0263E070E0CE0101960E94B4
:10126000980363E371E0CE0107960E940B04BE0170
:101270006F5F7F4FCE0107960E94F80365ED71E026
:101280000E94E2030E941F03CE0107960E944604BB
:10129000CE0101960E9446040E941703B0920101FC
:1012A000A0920001CE0143960E944604C114D104CD
:1012B00009F40ACF0E946301882309F403CF0E9436
:1012C000000000CF3D9131939F5F90CF8092BC0092
:1012D000A8CF8091000190910101019639F761E05A
:1012E00070E080E090E00E942B028091BD0290911E
:1012F000BE0201969093BE028093BD028091BD0212
:101300009091BE028031974224F01092BE0210925A
:10131000BD026091BD027091BE02CE010D960E9489
:10132000980363E070E0CE0107960E94980363E3A0
:1013300071E0CE0101960E940B04BE01695F7F4FF0
:10134000CE0101960E94F8036FEE71E00E94E20365
:10135000BE01635F7F4F0E94F8030E941F03CE010E
:1013600001960E944604CE0107960E944604CE01D3
:101370000D969ACF8F929F92AF92BF92CF92DF92AB
:10138000EF92FF92CF93DF93EC01688179818A819C
:101390009B81611571058105910521F464E279ED68
:1013A0008BE597E02DE133EF41E050E00E94B90A70
:1013B00049015A019B01AC01A7EAB1E40E94D80A95
:1013C0006B017C01ACEEB4EFA50194010E94E60A2A
:1013D000C60ED71EE81EF91EF7FE06C081E0C81A29
:1013E000D108E10880E8F80AC882D982EA82FB8243
:1013F000C701B6019F77DF91CF91FF90EF90DF900B
:10140000CF90BF90AF909F908F9008958F929F92B2
:10141000AF92BF92CF92DF92EF92FF926091020162
:10142000709103018091040190910501611571058E
:101430008105910521F464E279ED8BE597E02DE1DA
:1014400033EF41E050E00E94B90A49015A019B0183
:10145000AC01A7EAB1E40E94D80A6B017C01ACEEB2
:10146000B4EFA50194010E94E60AC60ED71EE81E3D
:10147000F91EF7FE06C081E0C81AD108E10880E82D
:10148000F80AC0920201D0920301E0920401F092A6
:101490000501C701B6019F77FF90EF90DF90CF90D5
:1014A000BF90AF909F908F900895609302017093CA
:1014B000030180930401909305010895FC0188279E
:1014C0009927E89421912032E9F3293010F02E3049
:1014D000C8F32B3241F02D3239F4689404C00E94D5
:1014E000870A820F911D219120532A30C0F31EF4E8
:1014F000909581959F4F0895BB274A3031F49923E9
:1015000022F4BDE2909581959F4F0C94900A7AE069
:10151000979F902D879F802D910D11240895BB27B3
:10152000FB015527AA27880F991FAA1FA41710F09F
:10153000A41B83955051B9F7A05DAA3308F0A95DAB
:10154000A193009779F7B111B1931192CB010C944B
:10155000A90ADC01FC01672F71917723E1F732972B
:1015600004C07C916D9370836291AE17BF07C8F37E
:101570000895052E97FB1EF400940E94D00A57FD93
:1015800007D00E94220B07FC03D04EF40C94D00A23
:1015900050954095309521953F4F4F4F5F4F08959F
:1015A00090958095709561957F4F8F4F9F4F0895CF
:1015B0000E94440BA59F900DB49F900DA49F800D99
:1015C000911D11240895B7FF0C94D80A0E94D80ADF
:1015D000821B930B08952F923F924F925F926F92CE
:1015E0007F928F929F92AF92BF92CF92DF92EF92B3
:1015F000FF920F931F93CF93DF93CDB7DEB7CA1B34
:10160000DB0B0FB6F894DEBF0FBECDBF09942A885E
:10161000398848885F846E847D848C849B84AA8406
:10162000B984C884DF80EE80FD800C811B81AA8193
:10163000B981CE0FD11D0FB6F894DEBF0FBECDBF5E
:10164000ED010895A1E21A2EAA1BBB1BFD010DC0DE
:10165000AA1FBB1FEE1FFF1FA217B307E407F50762
:1016600020F0A21BB30BE40BF50B661F771F881F3E
:10167000991F1A9469F760957095809590959B01D4
:10168000AC01BD01CF010895A29FB001B39FC0017D
:10169000A39F700D811D1124911DB29F700D811D9E
:1016A0001124911D0895EE0FFF1F0590F491E02D78
:1016B00009940F931F93CF93DF938230910510F419
:1016C00082E090E0E0916A03F0916B0330E020E06B
:1016D000B0E0A0E0309799F42115310509F44AC033
:1016E000281B390B24303105D8F58A819B8161157F
:1016F000710589F1FB0193838283FE0111C0408152
:1017000051810281138148175907E0F048175907A2
:1017100099F4109761F012960C93129713961C93FC
:101720003296CF01DF91CF911F910F9108950093D1
:101730006A0310936B03F4CF2115310551F0421762
:10174000530738F0A901DB019A01BD01DF01F8015F
:10175000C1CFEF01F9CF90936B0380936A03CDCF94
:10176000FE01E20FF31F81939193225031093983D7
:101770002883D7CF2091680330916903232B41F44C
:101780002091080130910901309369032093680387
:1017900020910601309107012115310541F42DB743
:1017A0003EB740910A0150910B01241B350BE0918B
:1017B0006803F0916903E217F307A0F42E1B3F0BB7
:1017C0002817390778F0AC014E5F5F4F24173507B3
:1017D00048F04E0F5F1F5093690340936803819355
:1017E00091939FCFF0E0E0E09CCFCF93DF93009701
:1017F000E9F0FC01329713821282A0916A03B09142
:101800006B03ED0130E020E01097A1F420813181DD
:10181000820F931F209168033091690328173907BD
:1018200009F061C0F0936903E0936803DF91CF9101
:101830000895EA01CE17DF07E8F54A815B819E0132
:1018400041155105B1F7E901FB83EA8349915991AB
:10185000C40FD51FEC17FD0761F4808191810296BA
:10186000840F951FE90199838883828193819B83EB
:101870008A83F0E0E0E012968D919C911397009797
:10188000B9F52D913C911197CD010296820F931FCE
:1018900020916803309169032817390739F630978A
:1018A00051F510926B0310926A03B0936903A093F1
:1018B0006803BCCFD383C28340815181840F951FBD
:1018C000C817D90761F44E5F5F4F88819981480F2F
:1018D000591F518340838A819B8193838283211581
:1018E000310509F0B0CFF0936B03E0936A039ECF0C
:1018F000FD01DC01C0CF13821282D7CFB0E0A0E09F
:10190000E4E8FCE00C94ED0A8C01009751F4CB0163
:101910000E94590B8C01C801CDB7DEB7E0E10C94F1
:10192000090BFC01E60FF71F9C0122503109E21759
:10193000F30708F49DC0D901CD91DC911197C6172A
:10194000D70798F0C530D10530F3CE01049786173C
:10195000970708F3C61BD70B2297C193D1936D93BA
:101960007C93CF010E94F50BD6CF5B01AC1ABD0A68
:101970004C018C0E9D1EA0916A03B0916B03512CFB
:10198000412CF12CE12C109731F580916803909156
:1019900069038815990509F05CC04616570608F0DA
:1019A00058C08091060190910701009741F48DB7CE
:1019B0009EB740910A0150910B01841B950BE817CB
:1019C000F90708F055C0F0936903E0936803F90143
:1019D00071836083A0CF8D919C91119712966C902A
:1019E000129713967C901397A815B90559F56C01B9
:1019F00042E0C40ED11CCA14DB0420F1AC014A1928
:101A00005B09DA011296159780F062827382518326
:101A10004083D9016D937C93E114F10471F0D701F7
:101A20001396FC93EE93129776CF22968C0F9D1F00
:101A3000F90191838083F301EFCFF0936B03E0937F
:101A40006A0369CF4816590608F42C017D01D301B9
:101A50009ACFCB010E94590B7C01009749F0AE014F
:101A6000B8010E943B0DC8010E94F50B870153CFBE
:101A700010E000E050CFFB01DC0102C001900D92AC
:101A800041505040D8F70895FB01DC0101900D92C0
:101A90000020E1F70895FB01DC014150504048F07F
:101AA00001900D920020C9F701C01D924150504095
:081AB000E0F70895F894FFCF60
:101AB800FFFF0100000000006C0380000000000030
:101AC8009901F9002601E601570135014901000095
:101AD8000000E502B80214038E02B1029E028F02D2
:101AE8000D0A004553435241564F2000202D3E20F9
:101AF800526563656269646F2000202D3E20417441
:101B080075616C697A61646F206F2076616C6F72A1
:101B180020646F2072656C6F67696F206120706147
:101B28007274697220646F206D6573747265002029
:101B38002D3E204E6F766F2052656C6F67696F3A45
:101B48002000202D3E20696E696369616E646F2EE6
:101B58002E2E00202D3E2052656C6F67696F20691C
:101B68006E69636961646F20656D2000202D3E20D9
:101B7800456E7669616E646F200020616F206D6527
:101B88007374726500202D3E205472616E736D6906
:101B98007373616F207465726D696E616461002092
:0E1BA8002D3E2052656C6F67696F3A20000079
:00000001FF
