:100000000C94B1000C94CE000C94CE000C94CE0055
:100010000C94CE000C94CE000C94CE000C94CE0028
:100020000C94CE000C94CE000C94CE000C94CE0018
:100030000C94CE000C946F020C94CE000C94CE0065
:100040000C94D7000C94CE000C94CE000C94CE00EF
:100050000C94CE000C9421010C94CE000C94CE0094
:100060000C94CE000C94CE0000407A10F35A00A0FD
:10007000724E18090010A5D4E80000E87648170071
:1000800000E40B54020000CA9A3B000000E1F505B1
:10009000000080969800000040420F000000A086FB
:1000A00001000000102700000000E803000000002D
:1000B0006400000000000A000000000001000000D1
:1000C00000002C76D888DC674F0823DFC1DFAE59EB
:1000D000E1B1B796E5E3E453C63AE651997696E87E
:1000E000E6C28426EB898C9B62ED407C6FFCEFBC02
:1000F0009C9F40F2BAA56FA5F490055A2AF75C932D
:100100006B6CF9676DC11BFCE0E40D47FEF520E662
:10011000B500D0ED902E0300943577050080841E45
:10012000080000204E0A000000C80C333333330FA0
:10013000986E12831141EF8D2114893BE65516CF3D
:10014000FEE6DB18D1844B381BF77C1D901DA4BB49
:10015000E424203284725E228100C9F124ECA1E5FE
:100160003D2711241FBECFEFD8E0DEBFCDBF11E089
:10017000A0E0B1E0EEE7F0E102C005900D92A233FD
:10018000B107D9F721E0A2E3B1E001C01D92AB367F
:10019000B207E1F70E9483020C943D080C94000022
:1001A0009091C00095FFFCCF8093C60008951F92E8
:1001B0000F920FB60F9211242F933F938F939F931B
:1001C000AF93BF938091630190916401A091650109
:1001D000B09166013091620123E0230F2D3758F56D
:1001E0000196A11DB11D209362018093630190933C
:1001F0006401A0936501B093660180915E019091C6
:100200005F01A0916001B09161010196A11DB11D36
:1002100080935E0190935F01A0936001B0936101B0
:10022000BF91AF919F918F913F912F910F900FBEF2
:100230000F901F90189526E8230F0296A11DB11D5F
:10024000D2CF1F920F920FB60F9211242F923F928E
:100250004F925F926F927F928F929F92AF92BF92D6
:10026000CF92DF92EF92FF920F931F932F933F93C2
:100270004F935F936F937F938F939F93AF93BF93AE
:10028000EF93FF93CF93DF93CDB7DEB72697DEBF13
:10029000CDBF609178007091790020915C01309120
:1002A0005D013A8329838901000F111F000F111F7F
:1002B0000C5C1E4F90E080E00E94F40520E030E0EE
:1002C00040EA50E40E94870620E030E040E85AE32C
:1002D0000E94870620E030E040E050E40E9487055D
:1002E000F801608371838283938389819A81019667
:1002F00090935D0180935C01209132013091330134
:100300003C832B832F5F3F4F3A8329833093330104
:10031000209332010A9709F0B9C08B819C810B961A
:100320009E838D83BC01990F880B990B0E94F60563
:100330002B013C01ED81FE818FEF9FEFE11520E263
:10034000F20728F4CF01880F991F880F991F0E9488
:1003500018071C019C838B83912C812C8D819E819D
:10036000881699060CF043C08401C12CD12C76016B
:10037000B12CA12CE981FA81AE16BF064CF5F5012E
:10038000EE0FFF1FEE0FFF1FEC5CFE4F60817181CF
:100390008281938120E030E0A9010B3011055CF4EB
:1003A000F801EE0FFF1FEE0FFF1FE050FF4F2081FF
:1003B0003181428153810E9487069B01AC01C701B4
:1003C000B6010E9488056B017C01FFEFAF1ABF0ADE
:1003D0000150110978F6EB81FC81C192D192E19232
:1003E000F192FC83EB83FFEF8F1A9F0AB7CFD12CDA
:1003F000C12CB6010D2C000C880B990B0E94F60540
:100400009B01AC01C301B2010E9482061816B4F52B
:1004100080E190E00E9418077C01F10161917191E7
:10042000819191911F0187012AE046E00E94FB0221
:10043000F70101900020E9F73197EE19FF09FA83DF
:10044000E983C8018E199F0929813A818217930790
:100450004CF4F80181918F01082E000C990B0E9439
:10046000D000EFCF8AE090E00E94D0008DE090E0D5
:100470000E94D000FFEFCF1ADF0ABBCF10925D01C0
:1004800010925C01109233011092320126960FB641
:10049000F894DEBF0FBECDBFDF91CF91FF91EF91FA
:1004A000BF91AF919F918F917F916F915F914F918C
:1004B0003F912F911F910F91FF90EF90DF90CF9080
:1004C000BF90AF909F908F907F906F905F904F9074
:1004D0003F902F900F900FBE0F901F9018951F9276
:1004E0000F920FB60F9211248F939F9386EF92EC89
:1004F00090938500809384009F918F910F900FBE01
:100500000F901F901895789484B5826084BD84B54F
:10051000816084BD85B5826085BD85B5816085BDFE
:1005200080916E00816080936E00109281008091B6
:10053000810082608093810080918100816080933E
:100540008100809180008160809380008091B10063
:1005500084608093B1008091B00081608093B0008E
:1005600080917A00846080937A0080917A00826022
:1005700080937A0080917A00816080937A008091E4
:100580007A00806880937A001092C100F8941092EB
:10059000C10082E88093C00086E08093C2002FEC07
:1005A00030E03093C5002093C40099E99093C100D6
:1005B0007894F8941092800094E09093810091E0F8
:1005C00090936F0026EF32EC3093850020938400E7
:1005D0007894F8949FEA90937A0080937B0080E46B
:1005E00080937C007894C0E0D0E02097F1F30E94E3
:1005F0000000FBCF0895EF920F931F93CF93DF93EB
:10060000E80134E047FD34E1042E000C550B57FFA0
:1006100003C0519541955109E32E022F242FAE01BD
:100620000E941903CE01DF91CF911F910F91EF909E
:100630000895A9E0B0E0EFE1F3E00C9456056A01FB
:10064000F22EB02E102FFBE3AF2EA01608F41BE302
:100650001F5F012F27E0AE014F5F5F4F0E947804BC
:10066000BC018981982F9970913009F43FC09BE2B9
:10067000E1FC04C09E2D9170E0FC3AC05E2D5071EB
:10068000E82FE87083FF46C084E0911101C083E049
:10069000EF2DE81B8F1508F0E0E0D6018E2F20E249
:1006A000552351F1992329F0D6019C93C601019657
:1006B0006C0196012D5F3F4FE2FE24C08EE4D6010F
:1006C0008C9391E411969C93119712968C93D90177
:1006D0008E2F90E281111BC0E20FF32FF11D1082CB
:1006E0008EEF9FEF2996ECE00C9472059DE2C6CF49
:1006F00090E2C4CF2D9381508111FCCFCE0ED11C3E
:10070000E0E0D0CF8EE6D6018C9391E6DBCF9D93CF
:100710008150E0CF482F447082FF3DC084E09111AA
:1007200001C083E08F1510F4EF2DE81BD6018E2F4A
:1007300020E2552309F1992329F0D6019C93C601A3
:1007400001966C0196012D5F3F4FE2FE1BC089E4CC
:10075000D6018C938EE411968C93119786E41296B1
:100760008C93D9018E2F90E2882309F4B5CF9D9305
:100770008150FACF2D9381508111FCCFCE0ED11C28
:10078000E0E0D9CF89E6D6018C938EE611968C9362
:10079000119786E6E4CF9B0177FF02C030E020E0AE
:1007A000A1E0B0E0911102C0B0E0A0E0F901319603
:1007B000AE0FBF1F8B2C912CBB2009F461C05401DC
:1007C000EFEFAE1ABE0AAA0DBB1DFA161B0619F0F2
:1007D00014F04F2D4A1B511188C0E3FC59C076011B
:1007E000A42FB0E2A1114FC0C40ED11C992309F46B
:1007F0005BC040E0D6011196F60190836D01552350
:1008000009F448C0012F060F9A81582F507184FFB8
:1008100003C0913309F4015010160CF047C00930A1
:1008200008F008E0EEE2FE2E5B01A01AB108850197
:100830009194819491082F3F320729F4D601FC92BC
:10084000F60131966F016217730794F102171307CF
:100850007CF5DB01A21BB30BAA24A394B12CAC0E34
:10086000BD1EAA0DBB1D11968C9121503109D601D8
:10087000119628153905F4F0F60180836D01DBCF60
:10088000B12CA12CA0CFF701B1937F01A150AACF29
:100890009111B0CFD601942F50E302C05D939150D7
:1008A0009111FCCFC40ED11C40E0ACCF01E0BACF17
:1008B00080E3DBCF6217730731F4963388F4953306
:1008C00011F4552369F0F6018083FD01842F90E235
:1008D000811108C0A40FB11D1C9290E080E002CFEE
:1008E00081E3F1CF91938150F3CF911183CF8ACFE0
:1008F000283008F027E03327DA01990F311D87FDF2
:10090000916000966105710539F432602E5F3D9368
:1009100030E32A95E1F708959F3F30F08038710564
:10092000610509F03C5F3C5F3D93913008F08068C1
:10093000911DDF93CF931F930F93FF92EF92192F87
:10094000987F9695E92F96959695E90FFF27EE5398
:10095000FF4F99273327EE24FF24A701E7010590D5
:100960000894079428F4360FE71EF81E491F511DFE
:10097000660F771F881F991F0694A1F705900794AB
:1009800028F4E70EF81E491F561FC11D770F881F58
:10099000991F661F0694A1F70590079428F4F80E96
:1009A000491F561FC71FD11D880F991F661F771F2C
:1009B0000694A1F70590079420F4490F561FC71F0E
:1009C000D81F990F661F771F881F0694A9F7849177
:1009D0001095177041F0D695C79557954795F794A0
:1009E000E7941A95C1F7E8E6F0E068941590159140
:1009F00035916591959105907FE27395E118F10A23
:100A0000430B560BC90BD009C0F7E10CF11E431F75
:100A1000561FC91FD01D7EF4703311F48A95E6CF9E
:100A2000E894015030F0080F0AF40027021708F488
:100A3000202F2395022F7A3328F079E37D932A958E
:100A4000E9F710C07D932A9589F6069497956795E6
:100A5000379517951794E118F10A430B560BC90BFC
:100A6000D00998F023957E9173957A3308F070E35E
:100A70007C932013B8F77E9170617D9330F083955D
:100A800071E37D9370E32A95E1F71124EF90FF90D5
:100A90000F911F91CF91DF91992787FD9095089530
:100AA0002F923F924F925F926F927F928F929F927E
:100AB000AF92BF92CF92DF92EF92FF920F931F936C
:100AC000CF93DF93CDB7DEB7CA1BDB0B0FB6F8941D
:100AD000DEBF0FBECDBF09942A88398848885F845D
:100AE0006E847D848C849B84AA84B984C884DF80CE
:100AF000EE80FD800C811B81AA81B981CE0FD11DB2
:100B00000FB6F894DEBF0FBECDBFED01089550586B
:100B1000BB27AA270E949F050C9448060E943A060C
:100B200038F00E94410620F039F49F3F19F426F472
:100B30000C9437060EF4E095E7FB0C943106E92F90
:100B40000E94590658F3BA1762077307840795077E
:100B500020F079F4A6F50C947B060EF4E0950B2EAC
:100B6000BA2FA02D0B01B90190010C01CA01A001FF
:100B70001124FF27591B99F0593F50F4503E68F15A
:100B80001A16F040A22F232F342F4427585FF3CF9B
:100B9000469537952795A795F0405395C9F77EF46C
:100BA0001F16BA0B620B730B840BBAF09150A1F0B5
:100BB000FF0FBB1F661F771F881FC2F70EC0BA0F3B
:100BC000621F731F841F48F4879577956795B795C3
:100BD000F7959E3F08F0B0CF9395880F08F09927BE
:100BE000EE0F979587950895E89409C097FB3EF41A
:100BF00090958095709561957F4F8F4F9F4F99236A
:100C0000A9F0F92F96E9BB279395F69587957795E7
:100C10006795B795F111F8CFFAF4BB0F11F460FFA7
:100C20001BC06F5F7F4F8F4F9F4F16C0882311F0FF
:100C300096E911C0772321F09EE8872F762F05C013
:100C4000662371F096E8862F70E060E02AF09A95AE
:100C5000660F771F881FDAF7880F9695879597F9A3
:100C6000089597F99F6780E870E060E008959FEF2E
:100C700080EC089500240A94161617061806090633
:100C8000089500240A941216130614060506089502
:100C9000092E0394000C11F4882352F0BB0F40F48A
:100CA000BF2B11F460FF04C06F5F7F4F8F4F9F4FCA
:100CB000089557FD9058440F551F59F05F3F71F04C
:100CC0004795880F97FB991F61F09F3F79F08795B3
:100CD0000895121613061406551FF2CF4695F1DF3C
:100CE00008C0161617061806991FF1CF86957105CC
:100CF000610508940895E894BB2766277727CB0100
:100D000097F908950E94F40608F48FEF08950E9461
:100D10009A060C9448060E943A0638F00E94410652
:100D200020F0952311F00C9431060C943706112411
:100D30000C947C060E94590670F3959FC1F3950FA1
:100D400050E0551F629FF001729FBB27F00DB11D4F
:100D5000639FAA27F00DB11DAA1F649F6627B00DDF
:100D6000A11D661F829F2227B00DA11D621F739FC8
:100D7000B00DA11D621F839FA00D611D221F749FD6
:100D80003327A00D611D231F849F600D211D822F1D
:100D9000762F6A2F11249F5750409AF0F1F0882344
:100DA0004AF0EE0FFF1FBB1F661F771F881F915071
:100DB0005040A9F79E3F510580F00C9431060C94E9
:100DC0007C065F3FE4F3983ED4F38695779567956C
:100DD000B795F795E7959F5FC1F7FE2B880F911D9B
:100DE0009695879597F90895990F0008550FAA0BC6
:100DF000E0E8FEEF16161706E807F907C0F012162E
:100E00001306E407F50798F0621B730B840B950B30
:100E100039F40A2661F0232B242B252B21F4089585
:100E20000A2609F4A140A6958FEF811D811D089522
:100E30000F931F93CF93DF938230910510F482E0DC
:100E400090E0E0916901F0916A0130E020E0B0E0CB
:100E5000A0E0309799F42115310509F44AC0281B08
:100E6000390B24303105D8F58A819B8161157105D4
:100E700089F1FB0193838283FE0111C0408151817E
:100E80000281138148175907E0F04817590799F470
:100E9000109761F012960C93129713961C9332964A
:100EA000CF01DF91CF911F910F91089500936901B8
:100EB00010936A01F4CF2115310551F04217530701
:100EC00038F0A901DB019A01BD01DF01F801C1CFB2
:100ED000EF01F9CF90936A0180936901CDCFFE01B4
:100EE000E20FF31F819391932250310939832883B4
:100EF000D7CF2091670130916801232B41F42091D5
:100F00002E0130912F0130936801209367012091C9
:100F10002C0130912D012115310541F42DB73EB73B
:100F20004091300150913101241B350BE091670154
:100F3000F0916801E217F307A0F42E1B3F0B28176E
:100F4000390778F0AC014E5F5F4F2417350748F042
:100F50004E0F5F1F509368014093670181939193F7
:100F60009FCFF0E0E0E09CCFCF93DF930097E9F0D4
:100F7000FC01329713821282A0916901B0916A013B
:100F8000ED0130E020E01097A1F420813181820F43
:100F9000931F20916701309168012817390709F0E4
:100FA00061C0F0936801E0936701DF91CF910895EC
:100FB000EA01CE17DF07E8F54A815B819E01411502
:100FC0005105B1F7E901FB83EA8349915991C40FB7
:100FD000D51FEC17FD0761F4808191810296840F83
:100FE000951FE90199838883828193819B838A83FA
:100FF000F0E0E0E012968D919C9113970097B9F57F
:101000002D913C911197CD010296820F931F209153
:101010006701309168012817390739F6309751F583
:1010200010926A0110926901B0936801A093670160
:10103000BCCFD383C28340815181840F951FC817D1
:10104000D90761F44E5F5F4F88819981480F591F1E
:10105000518340838A819B8193838283211531054B
:1010600009F0B0CFF0936A01E09369019ECFFD01D2
:0E107000DC01C0CF13821282D7CFF894FFCFDD
:10107E00E15D81BBCF04A63CAE2268BDEDFEDF3D37
:10108E00BA5222BE2914373EBA5222BEEDFEDF3DC1
:10109E00AE2268BDCF04A63CE15D81BB00006B01B2
:0210AE008000C0
:107E0000112484B714BE81FFF0D085E080938100F7
:107E100082E08093C00088E18093C10086E0809377
:107E2000C20080E18093C4008EE0C9D0259A86E02C
:107E300020E33CEF91E0309385002093840096BBD3
:107E4000B09BFECF1D9AA8958150A9F7CC24DD24C4
:107E500088248394B5E0AB2EA1E19A2EF3E0BF2EE7
:107E6000A2D0813461F49FD0082FAFD0023811F036
:107E7000013811F484E001C083E08DD089C08234E0
:107E800011F484E103C0853419F485E0A6D080C0E4
:107E9000853579F488D0E82EFF2485D0082F10E0AE
:107EA000102F00270E291F29000F111F8ED06801E7
:107EB0006FC0863521F484E090D080E0DECF843638
:107EC00009F040C070D06FD0082F6DD080E0C81688
:107ED00080E7D80618F4F601B7BEE895C0E0D1E017
:107EE00062D089930C17E1F7F0E0CF16F0E7DF06D8
:107EF00018F0F601B7BEE89568D007B600FCFDCFD4
:107F0000A601A0E0B1E02C9130E011968C91119780
:107F100090E0982F8827822B932B1296FA010C0160
:107F200087BEE89511244E5F5F4FF1E0A038BF0790
:107F300051F7F601A7BEE89507B600FCFDCF97BE46
:107F4000E89526C08437B1F42ED02DD0F82E2BD052
:107F50003CD0F601EF2C8F010F5F1F4F84911BD097
:107F6000EA94F801C1F70894C11CD11CFA94CF0C13
:107F7000D11C0EC0853739F428D08EE10CD085E9AC
:107F80000AD08FE07ACF813511F488E018D01DD067
:107F900080E101D065CF982F8091C00085FFFCCF94
:107FA0009093C60008958091C00087FFFCCF809118
:107FB000C00084FD01C0A8958091C6000895E0E648
:107FC000F0E098E1908380830895EDDF803219F02E
:107FD00088E0F5DFFFCF84E1DECF1F93182FE3DFCA
:107FE0001150E9F7F2DF1F91089580E0E8DFEE27F6
:047FF000FF270994CA
:027FFE00040479
:0400000300007E007B
:00000001FF
