:100000000C94B2000C94DA000C94DA000C94DA0030
:100010000C94DA000C94DA000C94DA000C94DA00F8
:100020000C94DA000C94DA000C94DA000C94DA00E8
:100030000C94DA000C94DA000C94DA000C94DA00D8
:100040000C9434010C94DA000C947E010C94DA00C8
:100050000C94DA000C94DA000C94DA000C94DA00B8
:100060000C94DA000C94DA0000407A10F35A00A0E5
:10007000724E18090010A5D4E80000E87648170071
:1000800000E40B54020000CA9A3B000000E1F505B1
:10009000000080969800000040420F000000A086FB
:1000A00001000000102700000000E803000000002D
:1000B0006400000000000A000000000001000000D1
:1000C00000002C76D888DC674F0823DFC1DFAE59EB
:1000D000E1B1B796E5E3E453C63AE651997696E87E
:1000E000E6C28426EB898C9B62ED407C6FFCEFBC02
:1000F0009C9F40F2BAA56FA5F490055A2AF75C932D
:100100006B6CF9676DC11BFCE0E40D47FEF520E662
:10011000B500D0ED902E0300943577050080841E45
:10012000080000204E0A000000C80C333333330FA0
:10013000986E12831141EF8D2114893BE65516CF3D
:10014000FEE6DB18D1844B381BF77C1D901DA4BB49
:10015000E424203284725E228100C9F124ECA1E5FE
:100160003D27DF0211241FBECFEFD8E0DEBFCDBF99
:1001700011E0A0E0B1E0E8E5FEE002C005900D92DC
:10018000A633B107D9F721E0A6E3B1E001C01D9283
:10019000A535B207E1F710E0C2EBD0E004C021972B
:1001A000FE010E94FF05C13BD107C9F70E947C02F6
:1001B0000C942A070C9400009091C00095FFFCCF8E
:1001C0008093C6000895EF92FF920F931F93CF93F1
:1001D000DF938C01EC0109900020E9F72197C81BFF
:1001E000D90B7C01C701801B910B8C179D074CF428
:1001F000F70181917F01082E000C990B0E94DC0011
:10020000F1CFDF91CF911F910F91FF90EF90089563
:10021000EF92FF920F931F93CF93DF938C01EC012A
:1002200009900020E9F72197C81BD90B7C01C70171
:10023000801B910B8C179D074CF4F70181917F0176
:10024000082E000C990B0E94DC00F1CF8AE090E0B0
:100250000E94DC008DE090E0DF91CF911F910F9123
:10026000FF90EF900C94DC001F920F920FB60F924C
:1002700011242F933F938F939F93AF93BF938091BC
:100280004D0190914E01A0914F01B09150013091DC
:100290004C0123E0230F2D3758F50196A11DB11D08
:1002A00020934C0180934D0190934E01A0934F01F8
:1002B000B09350018091480190914901A0914A0169
:1002C000B0914B010196A11DB11D809348019093FF
:1002D0004901A0934A01B0934B01BF91AF919F9107
:1002E0008F913F912F910F900FBE0F901F901895F7
:1002F00026E8230F0296A11DB11DD2CF1F920F92A7
:100300000FB60F921124CF92DF92EF92FF920F93CC
:100310001F932F933F934F935F936F937F938F938D
:100320009F93AF93BF93CF93DF93EF93FF9320916E
:10033000C600C0914601D09147012A3009F0CFC0D4
:10034000CE010E940603BC01990F880B990B0E94F5
:100350009C0520913601309137012115310509F0B6
:10036000BBC022E030E03093370120933601E090AB
:100370003601F0903701F701EE0FFF1FEE0FFF1F60
:10038000E85CFE4F608371838283938380E291E017
:100390000E94E300CE010E94080180E190E00E94EB
:1003A0000506EC01B701FF0C880B990B0E949C0518
:1003B0008E0120E046E00E94E802CE010E94080182
:1003C0008BE291E00E94E300D0E0C0E043E0C42E65
:1003D000D12C80E190E00E9405067C01209136013D
:1003E00030913701C9018C1B9D0BB6010E94D705C6
:1003F00097FF04C0A901481B590BCA01880F991F18
:10040000880F991FFC01E85CFE4F60817181828139
:100410009381870120E046E00E94E802C7010E9424
:10042000E30089E291E00E94E3002196C330D10508
:1004300081F68DE291E00E94E3008BE291E00E9460
:100440000801C8E3D1E084E4C82E81E0D82E80E121
:1004500090E00E9405067C016991799189919991BA
:10046000870120E046E00E94E802C7010E94E30005
:1004700089E291E00E94E300CC16DD0641F78FE2AD
:1004800091E00E94E3008AE291E00E94080110924C
:1004900045011092440180E190E00E94050690938E
:1004A000470180934601FF91EF91DF91CF91BF917A
:1004B000AF919F918F917F916F915F914F913F91FC
:1004C0002F911F910F91FF90EF90DF90CF900F90A1
:1004D0000FBE0F901F9018952150310944CF809185
:1004E000440190914501C80FD91F2883019690932C
:1004F000450180934401D7CF789484B5826084BD50
:1005000084B5816084BD85B5826085BD85B5816017
:1005100085BD80916E00816080936E001092810095
:100520008091810082608093810080918100816050
:100530008093810080918000816080938000809111
:10054000B10084608093B1008091B000816080939D
:10055000B00080917A00846080937A0080917A0064
:10056000826080937A0080917A00816080937A0023
:1005700080917A00806880937A001092C100F8948C
:100580001092C10082E88093C00086E08093C20090
:100590008FEC90E09093C5008093C40089E980932C
:1005A000C100789480E88FBF86E091E00E94080146
:1005B000C0E0D0E02097F1F30E940000FBCF80E183
:1005C00090E00E94050690934701809346010895AC
:1005D000EF920F931F93CF93DF93E80134E047FD31
:1005E00034E1042E000C550B57FF03C05195419583
:1005F0005109E32E022F242FAE010E942C03CE01BD
:10060000DF91CF911F910F91EF900895FC01882702
:100610009927E89421912032E9F3293010F02E3007
:10062000C8F32B3241F02D3239F4689404C00E9493
:100630002403820F911D219120532A30C0F31EF410
:10064000909581959F4F08957AE0979F902D879F71
:10065000802D910D11240895A9E0B0E0E2E3F3E0CC
:100660000C9469056A01F22EB02E102FFBE3AF2E19
:10067000A01608F41BE31F5F012F27E0AE014F5FB8
:100680005F4F0E948B04BC018981982F9970913033
:1006900009F43FC09BE2E1FC04C09E2D9170E0FC98
:1006A0003AC05E2D5071E82FE87083FF46C084E0A9
:1006B000911101C083E0EF2DE81B8F1508F0E0E0F9
:1006C000D6018E2F20E2552351F1992329F0D6012E
:1006D0009C93C60101966C0196012D5F3F4FE2FE8F
:1006E00024C08EE4D6018C9391E411969C931197CB
:1006F00012968C93D9018E2F90E281111BC0E20FCC
:10070000F32FF11D10828EEF9FEF2996ECE00C94F1
:1007100085059DE2C6CF90E2C4CF2D938150811113
:10072000FCCFCE0ED11CE0E0D0CF8EE6D6018C936C
:1007300091E6DBCF9D938150E0CF482F447082FF3C
:100740003DC084E0911101C083E08F1510F4EF2DBE
:10075000E81BD6018E2F20E2552309F1992329F0B9
:10076000D6019C93C60101966C0196012D5F3F4F07
:10077000E2FE1BC089E4D6018C938EE411968C9323
:10078000119786E412968C93D9018E2F90E28823DC
:1007900009F4B5CF9D938150FACF2D9381508111EB
:1007A000FCCFCE0ED11CE0E0D9CF89E6D6018C93E8
:1007B0008EE611968C93119786E6E4CF9B0177FF26
:1007C00002C030E020E0A1E0B0E0911102C0B0E052
:1007D000A0E0F9013196AE0FBF1F8B2C912CBB20EE
:1007E00009F461C05401EFEFAE1ABE0AAA0DBB1D99
:1007F000FA161B0619F014F04F2D4A1B511188C030
:10080000E3FC59C07601A42FB0E2A1114FC0C40E81
:10081000D11C992309F45BC040E0D6011196F60182
:1008200090836D01552309F448C0012F060F9A816A
:10083000582F507184FF03C0913309F401501016F2
:100840000CF047C0093008F008E0EEE2FE2E5B0134
:10085000A01AB10885019194819491082F3F320725
:1008600029F4D601FC92F60131966F0162177307E5
:1008700094F1021713077CF5DB01A21BB30BAA242A
:10088000A394B12CAC0EBD1EAA0DBB1D11968C916C
:1008900021503109D601119628153905F4F0F601D9
:1008A00080836D01DBCFB12CA12CA0CFF701B193D8
:1008B0007F01A150AACF9111B0CFD601942F50E360
:1008C00002C05D9391509111FCCFC40ED11C40E049
:1008D000ACCF01E0BACF80E3DBCF6217730731F40E
:1008E000963388F4953311F4552369F0F60180832B
:1008F000FD01842F90E2811108C0A40FB11D1C924C
:1009000090E080E002CF81E3F1CF91938150F3CF6B
:10091000911183CF8ACF283008F027E03327DA01FE
:10092000990F311D87FD916000966105710539F4BD
:1009300032602E5F3D9330E32A95E1F708959F3FA3
:1009400030F080387105610509F03C5F3C5F3D93F4
:10095000913008F08068911DDF93CF931F930F9320
:10096000FF92EF92192F987F9695E92F969596957D
:10097000E90FFF27EE53FF4F99273327EE24FF247B
:10098000A701E70105900894079428F4360FE71EA5
:10099000F81E491F511D660F771F881F991F069467
:1009A000A1F70590079428F4E70EF81E491F561F7B
:1009B000C11D770F881F991F661F0694A1F7059028
:1009C000079428F4F80E491F561FC71FD11D880F22
:1009D000991F661F771F0694A1F70590079420F4CE
:1009E000490F561FC71FD81F990F661F771F881FF3
:1009F0000694A9F784911095177041F0D695C79584
:100A000057954795F794E7941A95C1F7E8E6F0E013
:100A100068941590159135916591959105907FE2B7
:100A20007395E118F10A430B560BC90BD009C0F7B7
:100A3000E10CF11E431F561FC91FD01D7EF47033F9
:100A400011F48A95E6CFE894015030F0080F0AF4CB
:100A50000027021708F4202F2395022F7A3328F05D
:100A600079E37D932A95E9F710C07D932A9589F65D
:100A7000069497956795379517951794E118F10A9D
:100A8000430B560BC90BD00998F023957E917395B3
:100A90007A3308F070E37C932013B8F77E9170618D
:100AA0007D9330F0839571E37D9370E32A95E1F7B0
:100AB0001124EF90FF900F911F91CF91DF91992713
:100AC00087FD909508952F923F924F925F926F927B
:100AD0007F928F929F92AF92BF92CF92DF92EF92CE
:100AE000FF920F931F93CF93DF93CDB7DEB7CA1B4F
:100AF000DB0B0FB6F894DEBF0FBECDBF09942A887A
:100B0000398848885F846E847D848C849B84AA8421
:100B1000B984C884DF80EE80FD800C811B81AA81AE
:100B2000B981CE0FD11D0FB6F894DEBF0FBECDBF79
:100B3000ED010895E89409C097FB3EF490958095E7
:100B4000709561957F4F8F4F9F4F9923A9F0F92F93
:100B500096E9BB279395F695879577956795B79511
:100B6000F111F8CFFAF4BB0F11F460FF1BC06F5FF7
:100B70007F4F8F4F9F4F16C0882311F096E911C009
:100B8000772321F09EE8872F762F05C0662371F02A
:100B900096E8862F70E060E02AF09A95660F771F3E
:100BA000881FDAF7880F9695879597F9089597FB30
:100BB000072E16F4009407D077FD09D00E94EB05AC
:100BC00007FC05D03EF4909581959F4F0895709550
:100BD00061957F4F0895AA1BBB1B51E107C0AA1F57
:100BE000BB1FA617B70710F0A61BB70B881F991FCE
:100BF0005A95A9F780959095BC01CD010895EE0F07
:100C0000FF1F0590F491E02D09940F931F93CF934C
:100C1000DF938230910510F482E090E0E09153017F
:100C2000F091540130E020E0B0E0A0E0309799F47A
:100C30002115310509F44AC0281B390B2430310530
:100C4000D8F58A819B816115710589F1FB01938338
:100C50008283FE0111C040815181028113814817B6
:100C60005907E0F04817590799F4109761F0129668
:100C70000C93129713961C933296CF01DF91CF916C
:100C80001F910F9108950093530110935401F4CFD5
:100C90002115310551F04217530738F0A901DB0146
:100CA0009A01BD01DF01F801C1CFEF01F9CF9093A7
:100CB000540180935301CDCFFE01E20FF31F8193C6
:100CC00091932250310939832883D7CF2091510144
:100CD00030915201232B41F4209102013091030104
:100CE0003093520120935101209100013091010174
:100CF0002115310541F42DB73EB7409104015091C3
:100D00000501241B350BE0915101F0915201E217CE
:100D1000F307A0F42E1B3F0B2817390778F0AC011E
:100D20004E5F5F4F2417350748F04E0F5F1F5093FB
:100D3000520140935101819391939FCFF0E0E0E005
:100D40009CCFCF93DF930097E9F0FC013297138299
:100D50001282A0915301B0915401ED0130E020E0E6
:100D60001097A1F420813181820F931F20915101AE
:100D7000309152012817390709F061C0F0935201F0
:100D8000E0935101DF91CF910895EA01CE17DF077B
:100D9000E8F54A815B819E0141155105B1F7E901F2
:100DA000FB83EA8349915991C40FD51FEC17FD07C6
:100DB00061F4808191810296840F951FE9019983E6
:100DC0008883828193819B838A83F0E0E0E012969E
:100DD0008D919C9113970097B9F52D913C911197A6
:100DE000CD010296820F931F209151013091520143
:100DF0002817390739F6309751F51092540110929F
:100E00005301B0935201A0935101BCCFD383C2834D
:100E100040815181840F951FC817D90761F44E5F37
:100E20005F4F88819981480F591F518340838A8180
:100E30009B81938382832115310509F0B0CFF09314
:100E40005401E09353019ECFFD01DC01C0CF13821A
:080E50001282D7CFF894FFCF06
:100E5800000055018000546573746520646F20623A
:100E680075666665722063697263756C61722000CD
:100E7800526563656269646F3A20005B005D005DDE
:060E88002D2D2D2D2D0083
:107E0000112484B714BE81FFF0D085E080938100F7
:107E100082E08093C00088E18093C10086E0809377
:107E2000C20080E18093C4008EE0C9D0259A86E02C
:107E300020E33CEF91E0309385002093840096BBD3
:107E4000B09BFECF1D9AA8958150A9F7CC24DD24C4
:107E500088248394B5E0AB2EA1E19A2EF3E0BF2EE7
:107E6000A2D0813461F49FD0082FAFD0023811F036
:107E7000013811F484E001C083E08DD089C08234E0
:107E800011F484E103C0853419F485E0A6D080C0E4
:107E9000853579F488D0E82EFF2485D0082F10E0AE
:107EA000102F00270E291F29000F111F8ED06801E7
:107EB0006FC0863521F484E090D080E0DECF843638
:107EC00009F040C070D06FD0082F6DD080E0C81688
:107ED00080E7D80618F4F601B7BEE895C0E0D1E017
:107EE00062D089930C17E1F7F0E0CF16F0E7DF06D8
:107EF00018F0F601B7BEE89568D007B600FCFDCFD4
:107F0000A601A0E0B1E02C9130E011968C91119780
:107F100090E0982F8827822B932B1296FA010C0160
:107F200087BEE89511244E5F5F4FF1E0A038BF0790
:107F300051F7F601A7BEE89507B600FCFDCF97BE46
:107F4000E89526C08437B1F42ED02DD0F82E2BD052
:107F50003CD0F601EF2C8F010F5F1F4F84911BD097
:107F6000EA94F801C1F70894C11CD11CFA94CF0C13
:107F7000D11C0EC0853739F428D08EE10CD085E9AC
:107F80000AD08FE07ACF813511F488E018D01DD067
:107F900080E101D065CF982F8091C00085FFFCCF94
:107FA0009093C60008958091C00087FFFCCF809118
:107FB000C00084FD01C0A8958091C6000895E0E648
:107FC000F0E098E1908380830895EDDF803219F02E
:107FD00088E0F5DFFFCF84E1DECF1F93182FE3DFCA
:107FE0001150E9F7F2DF1F91089580E0E8DFEE27F6
:047FF000FF270994CA
:027FFE00040479
:0400000300007E007B
:00000001FF
